:040000003BEF00F0E2
:100008005482FACF08F0FBCF09F0F2AC0EEF00F003
:1000180010EF00F035EF00F00E01C1A316EF00F06D
:1000280018EF00F023EF00F0C9A31DEF00F01FEF59
:1000380000F023EF00F0CAEC88F035EF00F0C3A120
:1000480028EF00F02AEF00F035EF00F0CBA12FEFFA
:1000580000F031EF00F035EF00F032EC89F035EFC9
:1000680000F009C0FBFF08C0FAFF549211000CEF22
:020078008AF00C
:10FEE20000021501000000320C01AA1501000000F9
:10FEF200000000C60E01000000000000000000002B
:10FF02000000000000000000000000400A104F0046
:10FF1200640010010019324B644B321900434D4406
:10FF2200205265636569766564203D20253278003C
:10FF320044494D204C454420203A20253364202555
:10FF420025002020537461727420204572726F72F2
:10FF5200202000204269742054696D652045727228
:10FF62006F722000204461746120426974204572DE
:10FF7200726F7220004E6F7420496D706C656D65F2
:10FF82006E74656421002D2D2D2D2D2D2D2D2D2DE1
:10FF92002D2D2D2D2D2D002057616974696E67203E
:10FFA200666F7220434D44005265636569766564ED
:10FFB20020436F6D6D616E6400525820436F6D6D0A
:10FFC200616E64204572726F7200525820416464FF
:10FFD20072657373204572726F720053746172742A
:10FFE2002077616974204572726F72004461746196
:0EFFF2004269742057616974204572720000E4
:020000040001F9
:1000000030EF81F01DEC8AF00009D8B40AEF80F0DF
:100010000CEF80F055EF81F0000E0B6E000E0A6EB3
:1000200011EC88F0D1EC8AF00E01C381AB8E010E89
:10003000506E55EF81F05250D8B421EF80F023EF8D
:1000400080F048EF80F0526A53EC88F00009D8B491
:100050002CEF80F02EEF80F032EF80F0020E506E29
:1000600055EF81F0FAEC89F0440E1F6EFF0E206E02
:10007000000E216E69EC86F0880E1F6EFF0E206E5A
:10008000010E216E69EC86F0050E506E55EF81F081
:1000900050EC8AF00009D8B450EF80F052EF80F0B5
:1000A00055EF81F00E01C991FAEC89F0DD0E1F6E5B
:1000B000FF0E206E000E216E69EC86F0880E1F6E1A
:1000C000FF0E206E010E216E69EC86F044EF80F089
:1000D0005250D8B46EEF80F070EF80F0ABEF80F04C
:1000E000526A000E4B5C260E4C58D8B07AEF80F066
:1000F0007CEF80F097EF80F05150020DF350600FCD
:10010000D96EDA6A4BC0DEFF4CC0DDFF000E4C6ECC
:10011000000E4B6E512A1F0E516491EF80F093EF49
:1001200080F055EF81F0030E506E55EF81F0FAEC40
:1001300089F0550E1F6EFF0E206E000E216E69ECC9
:1001400086F0880E1F6EFF0E206E010E216E69EC88
:1001500086F044EF80F050EC8AF00009D8B4B3EF99
:1001600080F0B5EF80F055EF81F00E01C991FAEC07
:1001700089F0EE0E1F6EFF0E206E000E216E69ECF0
:1001800086F0880E1F6EFF0E206E010E216E69EC48
:1001900086F044EF80F0F9EC82F0466E4604D8A475
:1001A000D4EF80F0D6EF80F0E8EF80F0660E1F6E9F
:1001B000FF0E206E000E216E69EC86F0880E1F6E19
:1001C000FF0E206E010E216E69EC86F044EF80F088
:1001D000020E4618D8A4EFEF80F0F1EF80F003EFA5
:1001E00081F0CC0E1F6EFF0E206E000E216E69ECAA
:1001F00086F0880E1F6EFF0E206E010E216E69ECD8
:1002000086F044EF80F0030E4618D8A40AEF81F080
:100210000CEF81F01EEF81F0BB0E1F6EFF0E206E03
:10022000000E216E69EC86F0880E1F6EFF0E206EA8
:10023000010E216E69EC86F044EF80F0040E506EE2
:1002400055EF81F048503AEC87F0456E455081EC0F
:1002500083F044EF80F0CDEC8AF0506A55EF81F0E6
:100260005050436E446A4450000AD8B43AEF81F0CB
:100270002DEF81F04350000AD8B402EF80F0010A5C
:10028000D8B41BEF80F0030AD8B468EF80F0010AFD
:10029000D8B4CBEF80F0070AD8B422EF81F0010A7E
:1002A000D8B42BEF81F02DEF81F012002B50D96ED6
:1002B000DA6ADECFF6FFDDCFF7FF000EF86E08003A
:1002C000F550250AD8A467EF81F069EF81F047EF78
:1002D00082F02B50D96EDA6ADE2A000EDD22000E83
:1002E0000001A16F000EA06FA0C04FF0A269A3692A
:1002F0002BC00AF02CC00BF016EC85F00AC0A0F061
:100300000BC0A1F00001A1BF8AEF81F088EF81F05E
:100310008FEF81F04F80A06DA11FD8B0A12B2B5083
:10032000D96EDA6ADECF33F0DDCF34F033C0F6FFBA
:1003300034C0F7FF000EF86E0800F550640AD8B418
:10034000A4EF81F0A6EF81F0B6EF81F033C0F6FFA5
:1003500034C0F7FF000EF86E0800F550690AD8A403
:10036000B4EF81F0B6EF81F0D9EF81F02C50D96E67
:10037000DA6A020EDF26DF5CD96EDA6ADECF2FF092
:10038000DECF30F0010E33242D6E000E34202E6EA1
:100390002B50D96EDA6A2DC0DEFF2EC0DDFF2AC0D9
:1003A0001EF02FC01FF030C020F05BEC82F05AEF3F
:1003B00082F033C0F6FF34C0F7FF000EF86E08007D
:1003C000F550780AD8A4E7EF81F0E9EF81F01CEF4F
:1003D00082F02C50D96EDA6A020EDF26DF5CD96E0D
:1003E000DA6ADECF2FF0DECF30F0010E33242D6E2F
:1003F000000E34202E6E2B50D96EDA6A2DC0DEFF2F
:100400002EC0DDFF0EEF82F02AC01EF02FC01FF0BD
:1004100030C020F0F1EC83F05AEF82F033C0F6FFE9
:1004200034C0F7FF000EF86E0800F550780AD8B413
:1004300004EF82F01CEF82F02B50D96EDA6ADECF27
:10044000F6FFDDCFF7FF000EF86E0800F550250A25
:10045000D8A42DEF82F02FEF82F03FEF82F02B50E7
:10046000D96EDA6ADE2A000EDD22000E0B6E250E32
:100470000A6E2AC00CF0B9EC84F05AEF82F02B50CF
:10048000D96EDA6ADE2A000EDD225AEF82F02B5096
:10049000D96EDA6ADECFF6FFDDCFF7FF000EF86E19
:1004A0000800F5500A6E0B6A2AC00CF0B9EC84F013
:1004B0003FEF82F01200010E236E20BE62EF82F049
:1004C00065EF82F0010E66EF82F0000E266EA0C08E
:1004D00024F0A1C025F02650D8B471EF82F073EF5C
:1004E00082F08AEF82F02406D8A025062650D8A4F0
:1004F0007CEF82F07EEF82F084EF82F0000E226EBD
:100500002B0E216E88EF82F0000E226E2D0E216ED2
:1005100021C026F0000E286E1F0E276E0001C36B4F
:10052000BEEF82F02706D8A028062750A40FD96E68
:10053000DA6A1FC00AF020C00BF0000E0D6E0A0E22
:100540000C6E70EC85F00AC010F00BC011F0E5ECF9
:1005500088F01050300FDF6E236A2406D8A02506DD
:100560001FC00AF020C00BF0000E0D6E0A0E0C6EBC
:1005700058EC84F00AC01FF00BC020F028BEC9EF71
:1005800082F0285008E12704D8A0C9EF82F0CBEF11
:1005900082F0DCEF82F01F502010D8A4D2EF82F05E
:1005A000D4EF82F092EF82F02350D8A4DAEF82F0F9
:1005B000DCEF82F092EF82F02650D8B4E2EF82F0C6
:1005C000E4EF82F0EDEF82F02706D8A0280627504E
:1005D000A40FD96EDA6A26C0DFFF1EC017F02750BD
:1005E000A40F186E24C019F025C01AF0B3EC86F0E1
:1005F0001200106A116A116A1150020DF350600F57
:10060000D96EDA6A940EDE5C140EDE58D8B00BEFA9
:1006100083F00DEF83F025EF83F01150020DF350BE
:10062000600FD96EDA6A950EDE5C0E0EDE58D8A029
:100630001CEF83F01EEF83F025EF83F0D890473650
:10064000483649364A3651EF83F01150020DF350C7
:10065000600FD96EDA6A280EDE5C260EDE58D8B03E
:1006600034EF83F036EF83F04FEF83F01150020D3B
:10067000F350600FD96EDA6A290EDE5C200EDE5868
:10068000D8A045EF83F047EF83F04FEF83F0D89089
:100690004736483649364A36478051EF83F0010ED7
:1006A000106E112A1F0E116458EF83F05AEF83F079
:1006B000FCEF82F04A503AEC87F00F6E4950FF0A87
:1006C0004A18D8A466EF83F068EF83F071EF83F0E7
:1006D000AA0E0F18D8B46FEF83F071EF83F073EFA9
:1006E00083F0020E106E4750FF0A4818D8B47BEF13
:1006F00083F07DEF83F07FEF83F0030E106E1050D8
:1007000012000101136F010113510F0B116FFF0E46
:100710001125416E426AFF0E4222170E4124F66EE9
:10072000FF0E4220F76EF86A000EF8220800F5CF9F
:1007300012F1090E11619FEF83F0A1EF83F0E0EF5A
:1007400083F013C141F0F00E4116D8B4AAEF83F044
:10075000ACEF83F0B4EF83F012510A0DF3CF0AF03F
:10076000F4CF0BF0FFEC88F0000E3B6E010E3C6EF8
:100770001F0E3D6EFF0E3E6E13C13FF0406AEFEC60
:1007800087F0000E1F6E010E206E000E216E69ECC8
:1007900086F0000E3B6E010E3C6E320E3D6EFF0E7B
:1007A0003E6E12C13FF0406AEFEC87F0000E1F6E04
:1007B000010E206E010E216E69EC86F0F0EF83F0E1
:1007C000AA0E1F6EFF0E206E000E216E69EC86F0E1
:1007D000770E1F6EFF0E206E010E216E69EC86F003
:1007E0001200010E266EA0C024F0A1C025F0000E5C
:1007F000296E1F0E286E0001C36B2DEF84F02806B2
:10080000D8A029061F500F0B276E0A0E27600BEF8A
:1008100084F00DEF84F011EF84F0300E272613EFF3
:1008200084F0570E27262850A40FD96EDA6A27C005
:10083000DFFF266A2406D8A025061FC021F020C0AD
:1008400022F0040E236ED89022322132232E23EF81
:1008500084F021C01FF022C020F029BE39EF84F0BF
:10086000295009E1020E285CD8A039EF84F03BEF53
:1008700084F04CEF84F01F502010D8A442EF84F095
:1008800044EF84F0FFEF83F02650D8A44AEF84F0C1
:100890004CEF84F0FFEF83F01EC017F02850A40F38
:1008A000186E24C019F025C01AF0B3EC86F01200BF
:1008B0000F6A0DBE60EF84F05EEF84F066EF84F0A7
:1008C0000C6C0D1ED8B00D2A010E0F6E0BBE6DEF15
:1008D00084F06BEF84F073EF84F00A6C0B1ED8B0D9
:1008E0000B2A010E0F1A000E116E000E106E0C5026
:1008F0000D10D8B47EEF84F080EF84F0A8EF84F080
:10090000010E0E6E88EF84F0D8900C360D360E2A4C
:100910000DAE8DEF84F08FEF84F084EF84F0D890EB
:10092000103611360C500A5C0D500B58D8A09BEFB6
:1009300084F09DEF84F0A2EF84F00C500A5E0D501D
:100940000B5A1080D8900D320C320E2E8FEF84F09F
:100950000F50D8B4AEEF84F0B0EF84F0B4EF84F071
:10096000106C111ED8B0112A10C00AF011C00BF083
:1009700012000C50D8B4BFEF84F0C1EF84F0C9EF7F
:1009800084F00C50D8A4C7EF84F0C9EF84F0CEEF08
:1009900084F00A50D9EC8AF015EF85F00C50D96E2E
:1009A000DA6A090ED926DE50DE10D8B4DAEF84F008
:1009B000DCEF84F0F5EF84F00C50D96EDA6A090EA2
:1009C000D9260C50E16EE26A020EE126DE50E65CAA
:1009D000E650800A116EDE50800A1158D8B0F3EF4D
:1009E00084F0F5EF84F015EF85F00C50D96EDA6ADB
:1009F000020ED926DECF0DF0DDCF0EF00C50D96EF1
:100A0000DA6ADECF0FF0DDCF10F00D500F24D96E73
:100A10000E501020DA6E0AC0DFFF0C50D96EDA6A71
:100A2000020ED926DE2A000EDD221200000E106E04
:100A3000000E0F6E0A50D96EDA6ADECFF6FFDDCFF8
:100A4000F7FF000EF86E0800F5502A0AD8A42BEF25
:100A500085F02DEF85F056EF85F00A50D96EDA6AF1
:100A6000DE2A000EDD220B50D96EDA6A020EDF2676
:100A7000DF5CD96EDA6ADECF0FF0DECF10F06BEFFD
:100A800085F00A0E0F02F3CF0CF0F4CF0DF0100238
:100A9000F3500D260E500C240F6E000E0D20106E1C
:100AA0000A50D96EDA6ADE2A000EDD220A50D96EAB
:100AB000DA6ADECFF6FFDDCFF7FF000EF86E080032
:100AC000F550D00F0E6E090E0E6469EF85F06BEFD6
:100AD00085F041EF85F00FC00AF010C00BF0120056
:100AE0000F6A0BBE78EF85F076EF85F07EEF85F02C
:100AF0000A6C0B1ED8B00B2A010E0F6E0DBE85EFCF
:100B000085F083EF85F089EF85F00C6C0D1ED8B071
:100B10000D2A0C500D10D8B490EF85F092EF85F0AF
:100B2000B6EF85F0010E0E6E9AEF85F0D8900C3678
:100B30000D360E2A0DAE9FEF85F0A1EF85F096EFF2
:100B400085F00C500A5C0D500B58D8A0AAEF85F028
:100B5000ACEF85F0B0EF85F00C500A5E0D500B5AEB
:100B6000D8900D320C320E2EA1EF85F00F50D8B474
:100B7000BCEF85F0BEEF85F0C2EF85F00A6C0B1E6E
:100B8000D8B00B2A0AC00AF00BC00BF01200826A20
:100B9000836A846A856A866A0F010A6B126B1A6B14
:100BA0001F6B276BF70E876E8868AB0E896EFD0E84
:100BB0008A6E070E8B6EFD0E0C6F14698E0E1C6F05
:100BC0002169060E296F0B6B136B1B6B206B286B57
:100BD0000969116919691E69070E266F086910698C
:100BE00018691D690F0E256F100E0E01AA6F010EF8
:100BF0001F6F010EA66F150EB36F060EF46F050E74
:100C0000F26F1A0EFB6F100EF66F070EE56F160EE1
:100C1000B26F0F0EF86F0F01076B066B056B0F6B52
:100C20000E6B0D6B176B166B156B246B236B226BA6
:100C300012000A6E95BA1FEF86F021EF86F068EF7A
:100C400086F00A50050D0D0EF324F66EFF0EF4200B
:100C5000F76EF86A000EF8220800F5CF94FF0A50EC
:100C6000050D010EF326000EF4220D0EF324F66E90
:100C7000FF0EF420F76EF86A000EF8220800F5CF98
:100C800095FF0A50050D020EF326000EF4220D0EFC
:100C9000F324F66EFF0EF420F76EF86A000EF822C9
:100CA0000800F5CF97FF0A50050D030EF326000E3E
:100CB000F4220D0EF324F66EFF0EF420F76EF86AA0
:100CC000000EF8220800F5CF92FF958A68EF86F0B3
:100CD0001200000E1D6E21505BEC8AF0246A245035
:100CE0001F24226E000E2020236E22C0F6FF23C098
:100CF000F7FF000EF86E0F0EF76403D00800F550F2
:100D000005D0F6CFE9FFF7CFEAFFEF500009D8B4DE
:100D10008CEF86F08EEF86F0A7EF86F024501F242C
:100D2000226E000E2020236E22C0F6FF23C0F7FFA4
:100D3000000EF86E0F0EF76403D00800F55005D0D2
:100D4000F6CFE9FFF7CFEAFFEF50BAEC8AF0242A9A
:100D50000F0E2464AEEF86F0B0EF86F06FEF86F0F2
:100D600038EC8AF012004FA0B8EF86F0BAEF86F0A8
:100D7000C0EF86F018C012F017C013F090EC88F0A6
:100D80001ABEC7EF86F0C5EF86F0CBEF86F0000EF7
:100D90001A6E000E196E000E1D6E000E1C6EDBEF3B
:100DA00086F0000E0B6E200E0A6E17C00CF0B9EC28
:100DB00084F01C4A1D2A19501C5C1D50800A1B6EB1
:100DC0001A50800A1B58D8A0E8EF86F0EAEF86F0A8
:100DD000D1EF86F04FB0EFEF86F0F1EF86F0F7EF4E
:100DE00086F018C012F017C013F090EC88F01200D3
:100DF0001A6E1A380F0B186E1A500F0B196E16C098
:100E000017F0D8901736D89017361838F00B1710FF
:100E10001B6E16C017F0D8901736D89017361938B1
:100E2000F00B17101C6E1B50C1EC8AF0000E0B6EFD
:100E3000020E0A6E63EC89F01B500809C1EC8AF0BF
:100E4000000E0B6E020E0A6E63EC89F01C50C1ECB2
:100E50008AF0000E0B6E020E0A6E63EC89F01C50D5
:100E60000809C1EC8AF0000E0B6E280E0A6E63ECC6
:100E700089F012000C6E0CC00AF00F0E0A160A3A26
:100E8000F00E0A160C380F0B0F0B0A100C6E0CC06C
:100E90000AF0330E0A16D8900A36D8900A360C405B
:100EA000E8423F0B330B0A100C6E0CC00AF0550ED3
:100EB0000A16D8900A340B6ED8900C30550B0B10D4
:100EC0000C6E0C5012000AC00FF00BC00DF00CC0DD
:100ED0000EF07DEF87F00F50D96EDA6ADF50916E19
:100EE0000E01C8A176EF87F078EF87F070EF87F0FA
:100EF000C8910F2A0D06D8A00E060D500E10D8A4CA
:100F000084EF87F086EF87F06BEF87F01200F29A9C
:100F10000E01C591F280000E0A6E000E0B6E000EDF
:100F20000C6E9EEC8AF00E01C593F282000E0A6EE2
:100F3000000E0B6E000E0C6E97EC8AF00E01C5953C
:100F4000F284000E0A6E000E0B6E000E0C6E90EC1A
:100F50008AF0120036C039F037C03AF0B8EF87F0A7
:100F600035C02AF0390E2B6E38C02CF056EC81F0CB
:100F700039C0F6FF3AC0F7FF000EF86E0800F550D2
:100F80000009D8A4C6EF87F0C8EF87F0B0EF87F06C
:100F9000000E366E000E356E1200CE90CF6AD06A0B
:100FA000010ED16EE00ECD6EC00ECC6ECD500A6E2D
:100FB000CC504D6E0AC04EF0000E0001C76F000EFF
:100FC000C86F000EC96F000EC46F000EC56F000E13
:100FD000C66F0E01C991CA91140ECE6E12003F0E5B
:100FE0000001E26F3BC0E3F03CC0E4F0000EE66FAE
:100FF000000EE56F000EED6F000EEC6FE30E356E28
:101000003DC036F03EC037F0E20E386EAAEC87F0F5
:101010000001E5513B24D96EE6513C20DA6EDF6ACF
:101020001200CEA416EF88F018EF88F02DEF88F0AC
:10103000CEB01DEF88F020EF88F0010E21EF88F090
:10104000000E0C6E0B50CD6E0AC0CCFF0CB002D05F
:10105000CE9001D0CE8031EF88F00B50CD6E0AC01B
:10106000CCFF1200CEA437EF88F039EF88F04EEFB6
:1010700088F0CEB03EEF88F041EF88F0010E42EFED
:1010800088F0000E036E0250CD6E01C0CCFF03B09D
:1010900002D0CE9001D0CE8052EF88F00250CD6EBB
:1010A00001C0CCFF1200000E4B5CDF0E4C58D8B0D4
:1010B0005CEF88F05EEF88F070EF88F04B04B00EC4
:1010C0004C58D8A066EF88F068EF88F070EF88F091
:1010D000000E4C6E000E4B6E516A010E71EF88F0DF
:1010E000000E120019EC89F0F28EF28CAEEC88F052
:1010F0000E01C391880E0A6E140E0B6E010E0C6E5B
:1011000089EC8AF0560E0A6E140E0B6E010E0C6EF0
:10111000B3EC8AF000EC80F08AEF88F03BEF00F04F
:10112000000E166E000E156E9FEF88F014C00AF0C8
:101130000B6A13C00CF0B9EC84F0154A162A125051
:101140001524D96EDA6ADF50146E1450D8A4ABEFB0
:1011500088F0ADEF88F096EF88F01200200EC8EC12
:101160008AF0990E1F6EFF0E206E000E216E69EC44
:1011700086F0990E1F6EFF0E206E010E216E69EC37
:1011800086F0880E1F6EFF0E206E010E216E69EC38
:1011900086F012000001CA51CB11CC11D8B4D3EFA4
:1011A00088F0D5EF88F0E2EF88F002D8E2EF88F01F
:1011B0000500FA6ECA51FD6ECB51FE6ECC51FF6E2A
:1011C000FA5012000E01C993120011BEEAEF88F026
:1011D000ECEF88F0F2EF88F010C010F011C011F0C1
:1011E000FEEF88F010C012F011C013F0121E131E93
:1011F000124A132A12C010F013C011F012000AC0D4
:101200000CF00BC00DF0D8900D320C32D8900D328E
:101210000C320C50A36E0AC00CF0030E0C16060E16
:101220000D6ED8900C360D2E11EF89F00C50A26E79
:1012300012006FEC8AF0C7EC85F0BEEC89F078EC18
:101240008AF0CDEC87F0A9EC89F0E7EC89F07BEC33
:1012500089F04BEC89F066EC8AF081EC8AF087EC3F
:1012600087F012000E01CB91A9CF06F0AACF07F0AC
:1012700006C004F007C005F002D84AEF89F0050067
:10128000FA6E0001DF51FD6EE051FE6EE151FF6E1E
:10129000FA50120012000E013C6B190E3D6F3E6BAE
:1012A0003F6B406B416B426B436B446B820E3B6FF9
:1012B000000E0A6E000E0B6E000E0C6EA5EC8AF08E
:1012C0000E01CA9D12006DEF89F00B0E0C6E620EBE
:1012D000E82EFED70C2EFCD700D00A06D8A00B06AD
:1012E0000A2806E10B28D8A478EF89F07AEF89F074
:1012F00065EF89F012000E01286B296B2A6B2B6BAE
:101300002C6B2D6B2E6B2F6B306B820E276F000EAC
:101310000A6E000E0B6E000E0C6EACEC8AF00E0125
:10132000CA991200116E000E19EC86F0859E400ECF
:10133000126E11C013F010C014F0120E0A6E000EDF
:101340000C6E030E0B6E63EC87F0858ED5EC8AF085
:101350001200040EBE6E110EBD6EBF6A3D0EBB6E56
:10136000BA6AB40E0001CA6F150ECB6F010ECC6FB6
:101370000E01C993C183800EBC6E1200040EAB6EC9
:10138000AC6AAA6AA96AB60E0A6E150E0B6E010E39
:101390000C6EB3EC8AF0AD50FC0B0109AD6E0E0182
:1013A000CB91C3811200106E000E19EC86F082946E
:1013B000116A10C012F0110E0A6E000E0C6E020EB1
:1013C0000B6E63EC87F08284D5EC8AF01200010E7C
:1013D000B86EB76AB96AF90EB56EB46A000E00014C
:1013E000CD6F000ECE6F000ECF6F0E01C997E00ECD
:1013F000B66E1200D3EC8AF0000E0B6E000E0A6E71
:1014000011EC88F00E01C991AB9EC391000E4C6E99
:10141000000E4B6E516A120000EE60F0640EEE6A30
:10142000E806FDE100EE47F00D0EEE6AE806FDE18C
:1014300054905492000172EF88F05350D8B423EFC7
:101440008AF025EF8AF029EF8AF0536A010E2AEF1D
:101450008AF0000E1200000E026E000E016E32ECD9
:1014600088F0A9CF4BF0AACF4CF0010E526E1200BB
:10147000000E166E020EF8EC86F0000E0B6E020ED9
:101480000A6E63EC89F012008CB249EF8AF04BEFE0
:101490008AF04FEF8AF0D7EC8AF0010E536E1200FB
:1014A0000E01C9B156EF8AF059EF8AF0010E5AEFDA
:1014B0008AF0000E12001E6E000E166E1E50280DD1
:1014C000F3501D248009F8EC86F01200900EA46EF3
:1014D000A36AA26AAD50CF0B2009AD6E1200600E58
:1014E0000E01D36FD56BD76B060ED96FD86B120078
:1014F0008C0EA76EA66AA56AAD50F30B0809AD6EF7
:1015000012000E01C091C891946A956A976A926A16
:1015100012000AC0CAF00BC0CBF00CC0CCF0120015
:101520000AC0D0F00BC0D1F00CC0D2F012000AC03B
:10153000D3F00BC0D4F00CC0D5F012000AC0D6F026
:101540000BC0D7F00CC0D8F012000AC0DCF00BC002
:10155000DDF00CC0DEF012000AC0D9F00BC0DAF0EA
:101560000CC0DBF012000AC0DFF00BC0E0F00CC0D2
:10157000E1F012001D6E010E166E1D50F8EC86F0A3
:101580001200156E15C010F0150E92EC89F01200C5
:10159000136E1350D3EC89F01200FAEC89F0BC8E74
:1015A0001200CE801200CE901200959A1200BC9EBE
:0815B0001200120012001200EB
:020000040030CA
:0C0000008CFFFFFF9FFFFFFFFFFFFFFFD3
:00000001FF
