:020000040000FA
:040000003BEF00F0E2
:100008005882FACF05F0FBCF06F0F2AC0EEF00F005
:1000180010EF00F035EF00F00E01C1A316EF00F06D
:1000280018EF00F023EF00F0C9A31DEF00F01FEF59
:1000380000F023EF00F06DEC8EF035EF00F0C3A177
:1000480028EF00F02AEF00F035EF00F0CBA12FEFFA
:1000580000F031EF00F035EF00F0D4EC8EF035EF22
:1000680000F006C0FBFF05C0FAFF58921100A6EF8A
:020078008CF00A
:10FEF000008421017021012A2001000000541B010F
:10FF000000000000000000000000000000000019D8
:10FF1000324B644B3219000A404F000A404F0044F4
:10FF2000494D204C454420203A2025336420252586
:10FF300000436D64205265636569766564203D25E4
:10FF40003278002020537461727420204572726FE1
:10FF500072202000204269742054696D652045722A
:10FF6000726F7220002044617461204269742045E0
:10FF700072726F7220004E6F7420496D706C656DE7
:10FF8000656E74656421002D2D2D2D2D2D2D2D2DAB
:10FF90002D2D2D2D2D2D2D002057616974696E6733
:10FFA00020666F7220434D44005265636569766533
:10FFB0006420436F6D6D616E6400525820436F6D15
:10FFC0006D616E64204572726F72005258204164F8
:10FFD0006472657373204572726F7200537461723C
:10FFE000742077616974204572726F720044617485
:0FFFF00061426974205761697420457272000084
:020000040001F9
:100000004BC0D9FF4CC0DAFFDECFF6FFDDCFF7FFE4
:10001000000EF86E0800F550250AD8A412EF80F003
:1000200014EF80F0C1EF81F04BC0D9FF4CC0DAFF74
:10003000DE2A000EDD22000E0001AE6F000EAD6F55
:10004000ADC055F0AEC056F0536854684BC0D9FFF0
:100050004CC0DAFFDECFF6FFDDCFF7FF000EF86E03
:100060000800F5502A0AD8A438EF80F03AEF80F063
:1000700063EF80F04BC0D9FF4CC0DAFFDE2A000EE0
:10008000DD224DC0D9FF4EC0DAFFDFCF4FF0020EA8
:10009000DE26DFCF50F0000EDD224FC0D9FF50C06A
:1000A000DAFFDECFADF0DDCFAEF0AEBF5CEF80F0BB
:1000B0005AEF80F0A9EF80F05580AD6DAE1FD8B03B
:1000C000AE2BA9EF80F04BC0D9FF4CC0DAFFDECFDA
:1000D0000EF0DDCF0FF01AEC86F00EC0ADF00FC0C1
:1000E000AEF07AEF80F04BC0D9FF4CC0DAFFDE2AC9
:1000F000000EDD22D00E4F6EFF0E506E4BC0D9FFAA
:100100004CC0DAFFDECFF6FFDDCFF7FF000EF86E52
:100110000800F550516E526A4F50512650505222ED
:1001200052500AE10A0E515CD8A099EF80F09CEF82
:1001300080F0010E9DEF80F0000E0001706F716B7A
:1001400070517111D8A4A7EF80F0A9EF80F073EF80
:1001500080F04BC0D9FF4CC0DAFFDECFF6FFDDCF19
:10016000F7FF000EF86E0800F550640AD8B4BBEF34
:1001700080F0BDEF80F0D1EF80F04BC0D9FF4CC0D4
:10018000DAFFDECFF6FFDDCFF7FF000EF86E0800D6
:10019000F550690AD8A4CFEF80F0D1EF80F011EFCD
:1001A00081F04BC0D9FF4CC0DAFFDE2A000EDD2201
:1001B0004DC0D9FF4EC0DAFFDFCF4FF0020EDE2672
:1001C000DFCF50F0000EDD224FC0D9FF50C0DAFF64
:1001D000DECF60F0DDCF61F0000E61BFFF0E626F19
:1001E000636F646F656F666F676F49C022F04AC0C6
:1001F00023F060C024F061C025F062C026F063C027
:1002000027F064C028F065C029F066C02AF067C0F6
:100210002BF0DFEC81F022C049F023C04AF0DEEF82
:1002200081F04BC0D9FF4CC0DAFFDECFF6FFDDCF47
:10023000F7FF000EF86E0800F550780AD8B423EFE7
:1002400081F025EF81F039EF81F04BC0D9FF4CC030
:10025000DAFFDECFF6FFDDCFF7FF000EF86E080005
:10026000F550580AD8A437EF81F039EF81F089EFC3
:1002700081F04BC0D9FF4CC0DAFFDECFF6FFDDCFF7
:10028000F7FF000EF86E0800F5CF72F04BC0D9FFF3
:100290004CC0DAFFDE2A000EDD224DC0D9FF4EC071
:1002A000DAFFDFCF4FF0020EDE26DFCF50F0000E78
:1002B000DD224FC0D9FF50C0DAFFDECF51F0DDCFD5
:1002C00052F051C068F052C069F06A6B6B6B6C6B96
:1002D0006D6B6E6B6F6B49C022F04AC023F068C033
:1002E00024F069C025F06AC026F06BC027F06CC00E
:1002F00028F06DC029F06EC02AF06FC02BF072C0DC
:100300002CF04EEC83F022C049F023C04AF0DEEF1F
:1003100081F04BC0D9FF4CC0DAFFDECFF6FFDDCF56
:10032000F7FF000EF86E0800F550250AD8A49BEFE1
:1003300081F09DEF81F0B4EF81F04BC0D9FF4CC04C
:10034000DAFFDE2A000EDD22000E086E250E076E93
:1003500049C009F04AC00AF072EC89F0000E4A6EFA
:10036000010E496EDEEF81F04BC0D9FF4CC0DAFFC1
:10037000DE2A000EDD22000E4A6E000E496EDEEF10
:1003800081F04BC0D9FF4CC0DAFFDECFF6FFDDCFE6
:10039000F7FF000EF86E0800F550076E086A49C0B6
:1003A00009F04AC00AF072EC89F04BC0D9FF4CC08A
:1003B000DAFFDE2A000EDD22AEEF81F0120024C04B
:1003C0003CF025C03DF026C03EF027C03FF028C0DD
:1003D00040F029C041F02AC042F02BC043F043BE98
:1003E000F4EF81F0F7EF81F0010EF8EF81F0000EED
:1003F0003A6E3B6A3A503B10D8B401EF82F003EFFB
:1004000082F013EF82F0431E421E411E401E3F1E2B
:100410003E1E3D1E3C6C000E3D223E223F224022ED
:1004200041224222432254BE18EF82F01AEF82F09A
:100430001BEF82F0559254BE28EF82F0545006E133
:100440005304D8B026EF82F028EF82F02EEF82F02E
:10045000000E376E010E366E32EF82F053C036F06A
:1004600054C037F0ADC038F0AEC039F03A503B1050
:10047000D8A43DEF82F03FEF82F046EF82F055A422
:1004800044EF82F046EF82F049EF82F03806D8A0C0
:100490003906000E456E1F0E446E000E0001D36F2C
:1004A000CEEF82F04406D8A04506B40E4424D96E9F
:1004B000000E4520DA6E3CC007F03DC008F03EC09B
:1004C00009F03FC00AF040C00BF041C00CF042C040
:1004D0000DF043C00EF00A0E0F6E000E106E000EEF
:1004E000116E000E126E000E136E000E146E000ED2
:1004F000156E000E166EB0EC87F007C02CF008C029
:100500002DF009C02EF00AC02FF00BC030F00CC047
:1005100031F00DC032F00EC033F02CC019F02EC0F7
:100520001AF031EC8DF01950300FDF6E3606D8A07E
:1005300037063806D8A039063CC007F03DC008F0A1
:100540003EC009F03FC00AF040C00BF041C00CF0C3
:1005500042C00DF043C00EF00A0E0F6E000E106E7A
:10056000000E116E000E126E000E136E000E146E51
:10057000000E156E000E166EECEC86F007C03CF017
:1005800008C03DF009C03EF00AC03FF00BC040F08B
:100590000CC041F00DC042F00EC043F045BED9EF93
:1005A00082F0455008E14404D8A0D9EF82F0DBEF97
:1005B00082F00BEF83F03C503D103E103F10401096
:1005C000411042104310D8A4E8EF82F0EAEF82F025
:1005D00052EF82F037BEF7EF82F0375006E1360473
:1005E000D8B0F5EF82F0F7EF82F052EF82F039BE2B
:1005F00002EF83F0395008E13804D8A002EF83F00D
:1006000004EF83F00BEF83F055B209EF83F00BEFAB
:1006100083F052EF82F03A503B10D8A412EF83F0EF
:1006200014EF83F01BEF83F055A419EF83F01BEF59
:1006300083F039EF83F04406D8A045063A503B10CA
:10064000D8A425EF83F027EF83F02DEF83F0000E81
:10065000356E2B0E346E31EF83F0000E356E2D0E9D
:10066000346EB40E4424D96E000E4520DA6E34C0C8
:10067000DFFF22C017F023C018F0B40E4424196E17
:10068000000E45201A6E38C01BF039C01CF0D7ECA4
:1006900089F017C022F018C023F0120054BE53EFA7
:1006A00083F055EF83F056EF83F0559254BE63EF1D
:1006B00083F0545006E15304D8B061EF83F063EF48
:1006C00083F069EF83F0000E3A6E010E396E6DEF24
:1006D00083F053C039F054C03AF0ADC03BF0AEC027
:1006E0003CF055A876EF83F078EF83F07CEF83F051
:1006F000FE0E3B26FF0E3C2224C03DF025C03EF0FE
:1007000026C03FF027C040F028C041F029C042F089
:100710002AC043F02BC044F0000E466E1F0E456EFB
:10072000000E0001D36F48EF84F04506D8A04606BE
:100730000F0E3D14476E486A48BEA8EF83F048503C
:1007400009E10A0E475CD8A0A8EF83F0AAEF83F076
:10075000B2EF83F0570E4724476E000E4820486ED4
:10076000B8EF83F0300E4724476E000E4820486EE5
:10077000BF0E2D6EFF0E2E6E2C502F6E306A2D5038
:100780002F262E50302230500AE11A0E2F5CD8A0AE
:10079000CCEF83F0CFEF83F0010ED0EF83F0000EAB
:1007A000356E366A35503610D8B4D9EF83F0DBEFAA
:1007B00083F00BEF84F09F0E2D6EFF0E2E6E200E39
:1007C00047102F6E000E4810306E2D502F262E50E1
:1007D000302230500AE11A0E2F5CD8A0F2EF83F0DD
:1007E000F5EF83F0010EF6EF83F0000E376E386AF6
:1007F00037503810D8B4FFEF83F001EF84F00BEFDF
:1008000084F047C00DF048C00EF0FCEC8BF00DC03A
:1008100047F00EC048F0B40E4524D96E000E4620B5
:10082000DA6E47C0DFFF3906D8A03A063B06D8A0EB
:100830003C063DC02DF03EC02EF03FC02FF040C022
:1008400030F041C031F042C032F043C033F044C018
:1008500034F0050E35EF84F0D89034323332323232
:10086000313230322F322E322D32E82E2CEF84F0FE
:100870002DC03DF02EC03EF02FC03FF030C040F004
:1008800031C041F032C042F033C043F034C044F0D4
:1008900046BE54EF84F0465009E1020E455CD8A0F4
:1008A00054EF84F056EF84F086EF84F03D503E1014
:1008B0003F1040104110421043104410D8A463EF81
:1008C00084F065EF84F095EF83F03ABE72EF84F028
:1008D0003A5006E13904D8B070EF84F072EF84F03A
:1008E00095EF83F03CBE7DEF84F03C5008E13B0483
:1008F000D8A07DEF84F07FEF84F086EF84F055B2CE
:1009000084EF84F086EF84F095EF83F055A88BEFA9
:1009100084F08DEF84F0A3EF84F04506D8A046065E
:10092000B40E4524D96E000E4620DA6E2CC0DFFFCF
:100930004506D8A04606B40E4524D96E000E4620C2
:10094000DA6E300EDF6E22C017F023C018F0B40E3E
:100950004524196E000E46201A6E3BC01BF03CC0A9
:100960001CF0D7EC89F017C022F018C023F0120059
:10097000F3EF85F0F8EC8FF00009D8B4C2EF84F003
:10098000C4EF84F019EF86F0000E086E000E076EBB
:100990008CEC8FF0BEEC90F00E01C381AB8E010E9B
:1009A0000001B16F19EF86F0B351D8B4DAEF84F0DB
:1009B000DCEF84F004EF85F0000EB36F10EC8DF0E7
:1009C0000009D8B4E6EF84F0E8EF84F0EDEF84F0AE
:1009D000020E0001B16F19EF86F078EC8FF0430E34
:1009E0001D6EFF0E1E6E000E1F6E3CEC8BF0870E10
:1009F0001D6EFF0E1E6E010E1F6E3CEC8BF0050E81
:100A00000001B16F19EF86F077EC90F00009D8B4CF
:100A10000CEF85F00EEF85F019EF86F00E01C9910D
:100A200078EC8FF0DC0E1D6EFF0E1E6E000E1F6E3A
:100A30003CEC8BF0870E1D6EFF0E1E6E010E1F6EBE
:100A40003CEC8BF0FFEF84F0B351D8B42AEF85F083
:100A50002CEF85F06AEF85F0000EB36F000EAF5DEE
:100A6000260EB059D8B037EF85F039EF85F056EF44
:100A700085F0B251020D000EF324D96E010EF42060
:100A8000DA6EAFC0DEFFB0C0DDFF000EB06F000E4B
:100A9000AF6FB22B1F0EB26550EF85F052EF85F0AD
:100AA00019EF86F0030EB16F19EF86F078EC8FF036
:100AB000540E1D6EFF0E1E6E000E1F6E3CEC8BF072
:100AC000870E1D6EFF0E1E6E010E1F6E3CEC8BF02E
:100AD000FFEF84F077EC90F00009D8B472EF85F066
:100AE00074EF85F019EF86F00E01C99178EC8FF064
:100AF000ED0E1D6EFF0E1E6E000E1F6E3CEC8BF099
:100B0000870E1D6EFF0E1E6E010E1F6E3CEC8BF0ED
:100B1000FFEF84F062EC88F00001A66FA605D8A470
:100B200094EF85F096EF85F0A8EF85F0650E1D6EC9
:100B3000FF0E1E6E000E1F6E3CEC8BF0870E1D6EBE
:100B4000FF0E1E6E010E1F6E3CEC8BF0FFEF84F06B
:100B5000020EA619D8A4AFEF85F0B1EF85F0C3EF70
:100B600085F0CB0E1D6EFF0E1E6E000E1F6E3CEC50
:100B70008BF0870E1D6EFF0E1E6E010E1F6E3CEC7D
:100B80008BF0FFEF84F0030EA619D8A4CAEF85F00E
:100B9000CCEF85F0DEEF85F0BA0E1D6EFF0E1E6EF7
:100BA000000E1F6E3CEC8BF0870E1D6EFF0E1E6E4E
:100BB000010E1F6E3CEC8BF0FFEF84F0040EB16F62
:100BC00019EF86F0A8512BEC8CF00001A56FA55110
:100BD000F9EC88F0FFEF84F0B4EC90F0000E000127
:100BE000B16F19EF86F00001B151A36FA46BA4514E
:100BF000000AD8B4FEEF85F0EEEF85F0A351000AAD
:100C0000D8B4BAEF84F0010AD8B4D4EF84F0030A60
:100C1000D8B424EF85F0010AD8B48AEF85F0070A2A
:100C2000D8B4E2EF85F0010AD8B4ECEF85F0EEEF2E
:100C300085F01200000E1C6E000E1B6E000E156E6D
:100C4000000E146E26EF86F00E4A0F2A010E1A6E61
:100C50000EC0F6FF0FC0F7FF000EF86E0800F5504B
:100C6000200AD8B436EF86F038EF86F057EF86F0DA
:100C7000F70E106EFF0E116E0EC0F6FF0FC0F7FFDD
:100C8000000EF86E0800F550126E136A105012260E
:100C900011501322135009E1050E125CD8A053EF36
:100CA00086F055EF86F057EF86F0000E1A6E1AC0E8
:100CB00016F0176A16501710D8A461EF86F063EF8C
:100CC00086F024EF86F06DEF86F0000E156E010EB3
:100CD000146E0E4A0F2AA6EF86F00EC0F6FF0FC064
:100CE000F7FF000EF86E0800F550106E116A1150F3
:100CF000000AD8B47EEF86F0A6EF86F010502B0ADB
:100D0000D8B469EF86F0060AD8B465EF86F0A6EF8E
:100D100086F01BC007F01CC008F0000E0A6E0A0E19
:100D2000096EB4EC8FF00EC0F6FF0FC0F7FF000E97
:100D3000F86E0800F550075E000E085A300E0724C2
:100D40001B6E000E08201C6E69EF86F0D00E106E30
:100D5000FF0E116E0EC0F6FF0FC0F7FF000EF86E0B
:100D60000800F550126E136A10501226115013220B
:100D700013500AE10A0E125CD8A0C1EF86F0C4EF4E
:100D800086F0010EC5EF86F0000E186E196A185035
:100D90001910D8A4CEEF86F0D0EF86F089EF86F058
:100DA00014501510D8A4D7EF86F0D9EF86F0E7EFEE
:100DB00086F01BC010F01CC011F0101E111E104A4E
:100DC000112A10C00EF011C00FF0EBEF86F01BC01F
:100DD0000EF01CC00FF01200000E186E16BEF5EFDC
:100DE00086F0F3EF86F007EF87F0161E151E141E2F
:100DF000131E121E111E101E0F6C000E1022112247
:100E000012221322142215221622010E186E0EBE73
:100E10000EEF87F00CEF87F020EF87F00E1E0D1E0F
:100E20000C1E0B1E0A1E091E081E076C000E08224F
:100E300009220A220B220C220D220E22010E181A60
:100E400020EE19F0070EDE6AE806FDE20F501010E2
:100E5000111012101310141015101610D8B433EF0F
:100E600087F035EF87F087EF87F0010E176E43EFBD
:100E700087F0D8900F3610361136123613361436E6
:100E800015361636172A16AE48EF87F04AEF87F068
:100E900039EF87F0D89019361A361B361C361D36B6
:100EA0001E361F3620360F50075C10500858115060
:100EB000095812500A5813500B5814500C5815501A
:100EC0000D5816500E58D8A068EF87F06AEF87F0DB
:100ED0007BEF87F00F50075E1050085A1150095AE7
:100EE00012500A5A13500B5A14500C5A15500D5ADE
:100EF00016500E5A1980D890163215321432133209
:100F00001232113210320F32172E4AEF87F018507A
:100F1000D8B48DEF87F08FEF87F09FEF87F0201E1A
:100F20001F1E1E1E1D1E1C1E1B1E1A1E196C000ECF
:100F30001A221B221C221D221E221F22202219C01F
:100F400007F01AC008F01BC009F01CC00AF01DC051
:100F50000BF01EC00CF01FC00DF020C00EF01200F0
:100F6000000E186E0EBEB9EF87F0B7EF87F0CBEF2B
:100F700087F00E1E0D1E0C1E0B1E0A1E091E081EDB
:100F8000076C000E082209220A220B220C220D22D5
:100F90000E22010E186E16BED2EF87F0D0EF87F04A
:100FA000E2EF87F0161E151E141E131E121E111ED0
:100FB000101E0F6C000E1022112212221322142276
:100FC000152216220F5010101110121013101410A9
:100FD00015101610D8B4EFEF87F0F1EF87F039EF66
:100FE00088F0010E176EFFEF87F0D8900F3610369D
:100FF000113612361336143615361636172A16AE33
:1010000004EF88F006EF88F0F5EF87F00F50075CEB
:10101000105008581150095812500A5813500B58C4
:1010200014500C5815500D5816500E58D8A01BEFE0
:1010300088F01DEF88F02DEF88F00F50075E1050FC
:10104000085A1150095A12500A5A13500B5A145088
:101050000C5A15500D5A16500E5AD8901632153299
:10106000143213321232113210320F32172E06EFB1
:1010700088F01850D8B43FEF88F041EF88F051EF76
:1010800088F00E1E0D1E0C1E0B1E0A1E091E081EC9
:10109000076C000E082209220A220B220C220D22C4
:1010A0000E2207C007F008C008F009C009F00AC006
:1010B0000AF00BC00BF00CC00CF00DC00DF00EC010
:1010C0000EF01200000E0D6E000E0E6E000E0E6E73
:1010D0000E50020D000EF324D96E010EF420DA6ECC
:1010E000940EDE5C140EDE58D8B079EF88F07BEFFA
:1010F00088F096EF88F00E50020D000EF324D96EA2
:10110000010EF420DA6E950EDE5C0E0EDE58D8A0CD
:101110008CEF88F08EEF88F096EF88F00001D89081
:10112000A737A837A937AA37C7EF88F00E50020DA6
:10113000000EF324D96E010EF420DA6E280EDE5C68
:10114000260EDE58D8B0A7EF88F0A9EF88F0C5EFDB
:1011500088F00E50020D000EF324D96E010EF4201B
:10116000DA6E290EDE5C200EDE58D8A0BAEF88F0C9
:10117000BCEF88F0C5EF88F00001D890A737A837FA
:10118000A937AA37A781C7EF88F0010E0D6E0E2A86
:101190001F0E0E64CEEF88F0D0EF88F068EF88F075
:1011A0000001AA512BEC8CF00C6E0001A951FF0A32
:1011B000AA19D8A4DEEF88F0E0EF88F0E9EF88F014
:1011C000AA0E0C18D8B4E7EF88F0E9EF88F0EBEF3F
:1011D00088F0020E0D6EA751FF0AA819D8B4F3EFDC
:1011E00088F0F5EF88F0F7EF88F0030E0D6E0D50E4
:1011F00012000001A26F000E0001A16FA2510F0B9F
:10120000A06FFF0E8B6FFF0E8C6FA0518D6F8E6BDA
:101210008B518D278C518E230F0E8D25F66EFF0E70
:101220008E21F76EF86A000EF8220800F5CFA1F0C3
:10123000090EA0611EEF89F020EF89F061EF89F0BF
:10124000A2C08BF0F00E8B17D8B429EF89F02BEFEA
:1012500089F033EF89F0A1510A0DF3CF07F0F4CFF5
:1012600008F088EC8EF08F0E00017B6F000E7C6F13
:10127000310E7D6FFF0E7E6FA2C07FF0806B54EC4D
:101280008CF08F0E1D6E000E1E6E000E1F6E3CEC5D
:101290008BF08F0E00017B6F000E7C6F1F0E7D6F39
:1012A000FF0E7E6FA1C07FF0806B54EC8CF08F0E30
:1012B0001D6E000E1E6E010E1F6E3CEC8BF071EF6A
:1012C00089F0A90E1D6EFF0E1E6E000E1F6E3CEC07
:1012D0008BF0760E1D6EFF0E1E6E010E1F6E3CEC27
:1012E0008BF0120009500A10D8B479EF89F07BEF27
:1012F00089F084EF89F009500A10D8A482EF89F0B0
:1013000084EF89F089EF89F00750C6EC90F0D6EFB2
:1013100089F020EE04F00950D9260A50DA22DE5076
:10132000DE10D8B496EF89F098EF89F0B3EF89F02A
:1013300020EE04F00950D9260A50DA2210EE02F00D
:101340000950E1260A50E222DE50E65CE650800AAF
:101350000F6EDE50800A0F58D8B0B1EF89F0B3EFAE
:1013600089F0D6EF89F020EE02F00950D9260A5014
:10137000DA22DECF0BF0DDCF0CF009C0D9FF0AC0B6
:10138000DAFFDECF0DF0DDCF0EF00B500D24D96E5D
:101390000C500E20DA6E07C0DFFF20EE02F009507D
:1013A000D9260A50DA22DE2A000EDD22120055A0CC
:1013B000DCEF89F0DEEF89F0E8EF89F019C010F07A
:1013C0001AC011F017C012F018C013F0EEEC8CF038
:1013D0001CBEEDEF89F0EFEF89F0F5EF89F01BC04F
:1013E00020F01CC021F0F9EF89F0000E216E000EF4
:1013F000206E000E1F6E000E1E6E0BEF8AF0000EA8
:10140000086E200E076E17C009F018C00AF072ECC3
:1014100089F01E4A1F2A20501E5C1F50800A1D6E34
:101420002150800A1D58D8A018EF8AF01AEF8AF0D0
:10143000FFEF89F055B01FEF8AF021EF8AF02BEF14
:101440008AF019C010F01AC011F017C012F018C0BD
:1014500013F0EEEC8CF019C007F01AC008F052EC53
:101460008EF020500724176E21500820186E1200AD
:10147000086E95BA3EEF8AF040EF8AF092EF8AF05C
:101480000850040D010EF326000EF422170EF3246B
:10149000F66EFF0EF420F76EF86A000EF8220800D0
:1014A000F5CF94FF0850040D170EF324F66EFF0ECF
:1014B000F420F76EF86A000EF8220800F5CF95FFC9
:1014C000000E966E0850040D020EF326000EF42254
:1014D000170EF324F66EFF0EF420F76EF86A000E76
:1014E000F8220800F5CF92FF0850040D030EF326F2
:1014F000000EF422170EF324F66EFF0EF420F76EA2
:10150000F86A000EF8220800F5CF07F0073A074600
:10151000074689500718BF0B0718896E958A010E78
:1015200093EF8AF0000E1200000E866E000E856E9C
:10153000000E826E000E836E000E846E070E8B6EA0
:10154000F30E876E8868AA0E896E5D0E8A6E5D0E38
:101550000F01216F820E1C6F1469060E296FA10EF8
:101560000C6F000E206F000E286F000E136F000E20
:101570000B6F000E1B6F000E276F000E0A6F000E20
:10158000126F000E1A6F000E1F6F09691169196939
:101590001E69070E266F0869106918691D690F0E0C
:1015A000256F180E0E01F26F160EB26F010E1F6F2F
:1015B000070EE56F100EF66F010EA66F100EAA6FE4
:1015C000060EF46F1A0EFB6F0F0EF86F150EB36F49
:1015D0001200858E8284858AA9EC90F0000EA2EC20
:1015E00090F0000E086E280E076E1DEC8FF0000EB6
:1015F000146E030ECCEC8CF0000E086E0A0E076E13
:101600001DEC8FF0000E146E030ECCEC8CF0000E6F
:10161000086E0A0E076E1DEC8FF0000E146E030E9E
:10162000CCEC8CF0000E086E0A0E076E1DEC8FF0ED
:10163000000E146E020ECCEC8CF0000E146E2C0E0C
:1016400087EC8BF0000E146E0C0E87EC8BF0000E06
:10165000146E060E87EC8BF0000E146E0C0E87ECE9
:101660008BF0000E086E020E076E1DEC8FF049EC39
:1016700090F031EC90F01200000E1B6E1F5082ECC7
:1016800090F0000E226E22501D24206E000E1E20AF
:10169000216E20C0F6FF21C0F7FF000EF86E0E0E7F
:1016A000F76403D00800F55005D0F6CFE1FFF7CF7F
:1016B000E2FFE7500009D8B460EF8BF062EF8BF0E7
:1016C0007BEF8BF022501D24206E000E1E20216E19
:1016D00020C0F6FF21C0F7FF000EF86E0E0EF76473
:1016E00003D00800F55005D0F6CFE1FFF7CFE2FFB9
:1016F000E7509BEC90F0222A0F0E226482EF8BF0D1
:1017000084EF8BF043EF8BF049EC90F01200186EF1
:1017100018380F0B166E18500F0B176E14C015F0FB
:10172000D8901536D89015361638F00B1510196E5E
:1017300014C015F0D8901536D89015361738F00B20
:1017400015101A6E1950A2EC90F0000E086E020EE1
:10175000076E1DEC8FF019500809A2EC90F0000EF6
:10176000086E020E076E1DEC8FF01A50A2EC90F07E
:10177000000E086E020E076E1DEC8FF01A5008095D
:10178000A2EC90F0000E086E280E076E1DEC8FF094
:10179000120075C079F076C07AF0000E0001AC6FCF
:1017A000000EAB6FE7EF8BF073C049F074C04AF0E6
:1017B000790E4B6E000E4C6E77C04DF078C04EF037
:1017C00000EC80F049500001AB274A50AC2379C0AF
:1017D000F6FF7AC0F7FF000EF86E0800F55000091A
:1017E000D8A4F5EF8BF0F7EF8BF0D4EF8BF0ABC014
:1017F00073F0ACC074F012009F0E0F6EFF0E106EEF
:101800000DC011F00EC012F00F5011261050122210
:1018100012500AE11A0E115CD8A011EF8CF014EFEF
:101820008CF0010E15EF8CF0000E136E146A13503D
:101830001410D8B41EEF8CF020EF8CF026EF8CF053
:101840005F0E0D140D6E0E6A2AEF8CF00DC00DF0B8
:101850000EC00EF01200096E09C007F00F0E071639
:10186000073AF00E071609380F0B0F0B0710096E19
:1018700009C007F0330E0716D8900736D890073600
:101880000940E8423F0B330B0710096E09C007F00F
:10189000550E0716D8900734086ED8900930550BAE
:1018A0000810096E095012007F0E0001836F000EB0
:1018B000846F7BC085F07CC086F0000E886F000EC0
:1018C000876F000E8A6F000E896F850E736F000E92
:1018D000746F7DC075F07EC076F0830E776F000E5A
:1018E000786FC9EC8BF0000187517B25D96E885148
:1018F0007C21DA6E000EDF6E1200010E0D6E200EDE
:1019000007180810D8B487EF8CF089EF8CF0A2EF9D
:101910008CF0F70E096EFF0E0A6E07C00BF008C0C0
:101920000CF009500B260A500C220C5009E1050E50
:101930000B5CD8A09EEF8CF0A0EF8CF0A2EF8CF0A7
:10194000000E0D6E0DC007F0086A1200B20EF66EA2
:101950001F0EF76E010EF86E00EED4F010EE20F0C0
:101960000900F5CFEEFFE550E150FAE101EE00F09D
:10197000400EEE6AE806FDE100EEA7F02D0EEE6ADD
:10198000E806FDE1576A566A556A546A536A5890E8
:101990005892000151EF8DF0166E14C015F0D890DA
:1019A0001536D89015361638F00B1510176E1750DF
:1019B000A2EC90F017500809A2EC90F0000E086E0F
:1019C000010E076E1DEC8FF01750A2EC90F0000E88
:1019D000086E280E076E1DEC8FF01200000E166EBA
:1019E000000E156EFFEF8CF014C007F0086A12C0ED
:1019F00009F013C00AF072EC89F0154A162A155046
:101A00001024D96E16501120DA6EDF50146E145067
:101A1000D8A40DEF8DF00FEF8DF0F4EF8CF01200E5
:101A2000000E0001AF5DDF0EB059D8B01AEF8DF097
:101A30001CEF8DF02FEF8DF0AF05B00EB059D8A090
:101A400024EF8DF026EF8DF02FEF8DF0000EB06FAC
:101A5000000EAF6F000EB26F010E30EF8DF0000E72
:101A600012001ABE3EEF8DF01A5006E11904D8B0EC
:101A70003CEF8DF03EEF8DF04CEF8DF019C01BF078
:101A80001AC01CF01B1E1C1E1B4A1C2A1BC019F06E
:101A90001CC01AF050EF8DF019C019F01AC01AF0DE
:101AA00012008DEC8DF0F28EF28CC7EC8DF00E01F1
:101AB000C391AA0E076E200E086E010E096E8DEC02
:101AC00090F0460E076E200E086E010E096E94EC23
:101AD00090F0B8EC84F069EF8DF03BEF00F09F0ED2
:101AE000096EFF0E0A6E200E07100B6E000E081016
:101AF0000C6E09500B260A500C220C500AE11A0EEB
:101B00000B5CD8A086EF8DF089EF8DF0010E8AEF87
:101B10008DF0000E076E086A1200BCEC90F007EC26
:101B200090F0C7EC8FF094EC8AF03DEC90F06CEC08
:101B300090F005EC8FF0E9EC8FF0EDEC8EF062ECBC
:101B40008FF04CEC8FF061EC90F037EC8EF0E9EC1C
:101B50008AF0120008C00CF009C00DF0B9EF8DF04A
:101B60000CC0D9FF0DC0DAFFDF5015EC90F00C4A25
:101B70000D2A0A06D8A00B060A2806E10B28D8A4CD
:101B8000C4EF8DF0C6EF8DF0B0EF8DF01200200E97
:101B9000AFEC90F0980E1D6EFF0E1E6E000E1F6EC5
:101BA0003CEC8BF0980E1D6EFF0E1E6E000E1F6E2D
:101BB0003CEC8BF0870E1D6EFF0E1E6E010E1F6E2D
:101BC0003CEC8BF012009F0E096EFF0E0A6E07C0F0
:101BD0000BF008C00CF009500B260A500C220C50D8
:101BE0000AE11A0E0B5CD8A0F8EF8DF0FBEF8DF038
:101BF000010EFCEF8DF0000E076E086A1200BF0E9A
:101C0000096EFF0E0A6E07C00BF008C00CF00950F9
:101C10000B260A500C220C500AE11A0E0B5CD8A0BD
:101C200014EF8EF017EF8EF0010E18EF8EF0000E0D
:101C3000076E086A1200D00E096EFF0E0A6E07C00A
:101C40000BF008C00CF009500B260A500C220C5067
:101C50000AE10A0E0B5CD8A030EF8EF033EF8EF065
:101C6000010E34EF8EF0000E076E086A1200000EAF
:101C7000CF6E000ED06E010ED16EE00ECD6EC00E96
:101C8000CC6E0E01C991CC50CDCF07F0086A07C0C9
:101C900008F0076A07100001FA6F0850FB6F100E7A
:101CA000CE6E120007C009F008C00AF05AEF8EF09D
:101CB000074A082A07C0D9FF08C0DAFFDF50D8A4B6
:101CC00064EF8EF066EF8EF058EF8EF00950075CEF
:101CD000076E0A500858086E12000E01C9930001E1
:101CE000F451F511F611D8B478EF8EF07AEF8EF04A
:101CF00087EF8EF002D887EF8EF00500FA6EF45170
:101D0000FD6EF551FE6EF651FF6EFA501200120094
:101D100007C009F008C00AF0D8900A320932D890FA
:101D20000A3209320950A36E07C009F0030E0916E2
:101D3000060E0A6ED89009360A2E9AEF8EF00950D8
:101D4000A26E12000F6E000EBBEC8EF0859E400E50
:101D5000106E0FC011F00EC012F0100E086E000EC3
:101D6000096E000E0B6E030E0A6EAAEC8DF0858EC6
:101D7000C2EC90F012000B6EC2EF8EF0B8EC90F057
:101D8000D3EF8EF00B50096E0A6A0A50000AD8B4DD
:101D9000CCEF8EF0D3EF8EF00950000AD8B4BEEF2E
:101DA0008EF0D3EF8EF012000E01CB91A9CF03F08D
:101DB000AACF04F003C001F004C002F002D8ECEF97
:101DC0008EF00500FA6E0001F751FD6EF851FE6EBF
:101DD000F951FF6EFA5012001200040EBE6E120E80
:101DE000BD6E000EBF6E3D0EBB6E000EBA6E0E01D4
:101DF000C993C1838E0E076E210E086E010E096E07
:101E00008DEC90F0800EBC6E1200040EAB6E000ED6
:101E1000AC6E000EAA6E000EA96E900E076E210E1B
:101E2000086E010E096E94EC90F0AD50FC0B0109A8
:101E3000AD6E0E01CB91C381120027EF8FF00B0E18
:101E4000096E620EE82EFED7092EFCD700D00706D9
:101E5000D8A00806072806E10828D8A432EF8FF09A
:101E600034EF8FF01FEF8FF012000E6E000EBBEC00
:101E70008EF08294000E0F6E0EC010F00F0E086EE2
:101E8000000E096E000E0B6E020E0A6EAAEC8DF0AB
:101E90008284C2EC90F012000E0E0E013C6F190EFF
:101EA0003D6F000E3E6F000E3F6F000E406F020E42
:101EB000416F000E426F000E436F000E446F820EA2
:101EC0003B6F12000E0E0E01286F000E296F000EE0
:101ED0002A6F000E2B6F000E2C6F020E2D6F000E5E
:101EE0002E6F000E2F6F000E306F820E276F1200C4
:101EF000C0EC90F0000E086E000E076E8CEC8FF0B8
:101F00000E01C991AB9EC391000E0001B06F000E8F
:101F1000AF6F000EB26F1200CEA491EF8FF093EF6F
:101F20008FF09BEF8FF0CE900850CD6E07C0CCFFA6
:101F3000CE809FEF8FF00850CD6E07C0CCFF12000F
:101F4000CEA4A5EF8FF0A7EF8FF0AFEF8FF0CE907C
:101F50000250CD6E01C0CCFFCE80B3EF8FF00250A7
:101F6000CD6E01C0CCFF120007500902F3CF0BF079
:101F7000F4CF0CF007500A02F3500C260850090267
:101F8000F3500C260BC007F00CC008F01200160E20
:101F90000E01B26F150EB36F0F0EF86F100EF66FC5
:101FA000400E946E0A0E956E4F0E926E899C959A15
:101FB00012003C2A202020574F524C442020202041
:101FC0002A3E3C2A20202048454C4C4F20202020EF
:101FD0002A3E010EB86E000EB76E000EB96EF90EF5
:101FE000B56E000EB46E0E01C997E00EB66E12000B
:101FF0005750D8B4FEEF8FF000EF90F005EF90F05F
:10200000000E576E010E06EF90F0000E1200000E4B
:102010000E01DC6F000EDD6F000EDE6F000EDF6F55
:10202000000EE06F000EE16F1200076E07C091FF17
:102030000E01C8A11EEF90F020EF90F018EF90F085
:10204000C89191501200000E026E000E016EA0ECBD
:102050008FF0A9CFAFF0AACFB0F0010E0001B36F9F
:102060001200000E146E010E87EC8BF0000E086E4D
:10207000020E076E1DEC8FF01200600E0E01D36F82
:10208000000ED56F000ED76F060ED96F000ED86FF9
:102090001200000E146E020E87EC8BF0000E086E1C
:1020A000020E076E1DEC8FF012008CB25AEF90F00A
:1020B0005CEF90F060EF90F0C4EC90F0010E576E82
:1020C0001200900EA46E000EA36E000EA26EAD5014
:1020D000CF0B2009AD6E12008C0EA76E010EA66EFE
:1020E000F30EA56EAD50F30B0809AD6E12000E0194
:1020F000C9B17DEF90F080EF90F0010E81EF90F08C
:10210000000E12001C6E000E146E1C50280DF350B1
:102110001B24800987EC8BF0120007C0F4F008C084
:10212000F5F009C0F6F0120007C0F7F008C0F8F0AB
:1021300009C0F9F012001B6E010E146E1B5087ECE3
:102140008BF01200136E13C00EF0150EA2EC8EF081
:102150001200000E0E6E010EA2EC8EF01200116E37
:10216000115035EC8FF0120078EC8FF0BC8E12001D
:10217000000E38EC8AF01200F29A1200CE801200A3
:10218000CE901200959A1200BC9E1200120012000E
:0221900012003B
:020000040020DA
:10000000FFFFFFFFFFFFFFFFFFFFFFFFFFFFFFFF00
:10001000FFFFFFFFFFFFFFFFFFFFFFFFFFFFFFFFF0
:10002000FFFFFFFFFFFFFFFFFFFFFFFFFFFFFFFFE0
:10003000FFFFFFFFFFFFFFFFFFFFFFFFFFFFFFFFD0
:10004000FFFFFFFFFFFFFFFFFFFFFFFFFFFFFFFFC0
:10005000FFFFFFFFFFFFFFFFFFFFFFFFFFFFFFFFB0
:10006000FFFFFFFFFFFFFFFFFFFFFFFFFFFFFFFFA0
:10007000FFFFFFFFFFFFFFFFFFFFFFFFFFFFFFFF90
:10008000FFFFFFFFFFFFFFFFFFFFFFFFFFFFFFFF80
:10009000FFFFFFFFFFFFFFFFFFFFFFFFFFFFFFFF70
:1000A000FFFFFFFFFFFFFFFFFFFFFFFFFFFFFFFF60
:1000B000FFFFFFFFFFFFFFFFFFFFFFFFFFFFFFFF50
:1000C000FFFFFFFFFFFFFFFFFFFFFFFFFFFFFFFF40
:1000D000FFFFFFFFFFFFFFFFFFFFFFFFFFFFFFFF30
:1000E000FFFFFFFFFFFFFFFFFFFFFFFFFFFFFFFF20
:1000F000FFFFFFFFFFFFFFFFFFFFFFFFFFFFFFFF10
:020000040030CA
:0C000000ECFFFFFF9FFFFFFFFFFFFFFF73
:00000001FF
